{
  "contractName": "TrumpCard",
  "abi": [
    {
      "constant": false,
      "inputs": [],
      "name": "renounceOwnership",
      "outputs": [],
      "payable": false,
      "stateMutability": "nonpayable",
      "type": "function",
      "signature": "0x715018a6"
    },
    {
      "constant": true,
      "inputs": [],
      "name": "owner",
      "outputs": [
        {
          "name": "",
          "type": "address"
        }
      ],
      "payable": false,
      "stateMutability": "view",
      "type": "function",
      "signature": "0x8da5cb5b"
    },
    {
      "constant": true,
      "inputs": [],
      "name": "trumpCard",
      "outputs": [
        {
          "name": "nameId",
          "type": "string"
        },
        {
          "name": "defence",
          "type": "uint256"
        },
        {
          "name": "attack",
          "type": "uint256"
        },
        {
          "name": "owner",
          "type": "address"
        },
        {
          "name": "price",
          "type": "uint256"
        }
      ],
      "payable": false,
      "stateMutability": "view",
      "type": "function",
      "signature": "0xbac792aa"
    },
    {
      "constant": false,
      "inputs": [
        {
          "name": "_newOwner",
          "type": "address"
        }
      ],
      "name": "transferOwnership",
      "outputs": [],
      "payable": false,
      "stateMutability": "nonpayable",
      "type": "function",
      "signature": "0xf2fde38b"
    },
    {
      "anonymous": false,
      "inputs": [
        {
          "indexed": true,
          "name": "previousOwner",
          "type": "address"
        }
      ],
      "name": "OwnershipRenounced",
      "type": "event",
      "signature": "0xf8df31144d9c2f0f6b59d69b8b98abd5459d07f2742c4df920b25aae33c64820"
    },
    {
      "anonymous": false,
      "inputs": [
        {
          "indexed": true,
          "name": "previousOwner",
          "type": "address"
        },
        {
          "indexed": true,
          "name": "newOwner",
          "type": "address"
        }
      ],
      "name": "OwnershipTransferred",
      "type": "event",
      "signature": "0x8be0079c531659141344cd1fd0a4f28419497f9722a3daafe3b4186f6b6457e0"
    },
    {
      "anonymous": false,
      "inputs": [
        {
          "indexed": true,
          "name": "_from",
          "type": "address"
        },
        {
          "indexed": true,
          "name": "_to",
          "type": "address"
        },
        {
          "indexed": false,
          "name": "_tokenId",
          "type": "uint256"
        }
      ],
      "name": "Transfer",
      "type": "event",
      "signature": "0xddf252ad1be2c89b69c2b068fc378daa952ba7f163c4a11628f55a4df523b3ef"
    },
    {
      "anonymous": false,
      "inputs": [
        {
          "indexed": true,
          "name": "_owner",
          "type": "address"
        },
        {
          "indexed": true,
          "name": "_approved",
          "type": "address"
        },
        {
          "indexed": false,
          "name": "_tokenId",
          "type": "uint256"
        }
      ],
      "name": "Approval",
      "type": "event",
      "signature": "0x8c5be1e5ebec7d5bd14f71427d1e84f3dd0314c0f7b2291e5b200ac8c7c3b925"
    },
    {
      "constant": false,
      "inputs": [],
      "name": "mintToken",
      "outputs": [],
      "payable": false,
      "stateMutability": "nonpayable",
      "type": "function",
      "signature": "0x2004ffd9"
    },
    {
      "constant": false,
      "inputs": [],
      "name": "buyTrumpcard",
      "outputs": [],
      "payable": true,
      "stateMutability": "payable",
      "type": "function",
      "signature": "0xa14d122d"
    },
    {
      "constant": false,
      "inputs": [
        {
          "name": "_prc",
          "type": "uint256"
        }
      ],
      "name": "setTajmahalPrice",
      "outputs": [],
      "payable": false,
      "stateMutability": "nonpayable",
      "type": "function",
      "signature": "0x21ee585b"
    },
    {
      "constant": false,
      "inputs": [],
      "name": "withdraw",
      "outputs": [],
      "payable": false,
      "stateMutability": "nonpayable",
      "type": "function",
      "signature": "0x3ccfd60b"
    },
    {
      "constant": true,
      "inputs": [
        {
          "name": "_owner",
          "type": "address"
        }
      ],
      "name": "balanceOf",
      "outputs": [
        {
          "name": "_balance",
          "type": "uint256"
        }
      ],
      "payable": false,
      "stateMutability": "view",
      "type": "function",
      "signature": "0x70a08231"
    },
    {
      "constant": true,
      "inputs": [
        {
          "name": "_tokenId",
          "type": "uint256"
        }
      ],
      "name": "ownerOf",
      "outputs": [
        {
          "name": "_owner",
          "type": "address"
        }
      ],
      "payable": false,
      "stateMutability": "view",
      "type": "function",
      "signature": "0x6352211e"
    },
    {
      "constant": false,
      "inputs": [
        {
          "name": "_to",
          "type": "address"
        },
        {
          "name": "_tokenId",
          "type": "uint256"
        }
      ],
      "name": "transfer",
      "outputs": [],
      "payable": false,
      "stateMutability": "nonpayable",
      "type": "function",
      "signature": "0xa9059cbb"
    },
    {
      "constant": false,
      "inputs": [
        {
          "name": "_to",
          "type": "address"
        },
        {
          "name": "_tokenId",
          "type": "uint256"
        }
      ],
      "name": "approve",
      "outputs": [],
      "payable": false,
      "stateMutability": "nonpayable",
      "type": "function",
      "signature": "0x095ea7b3"
    },
    {
      "constant": false,
      "inputs": [
        {
          "name": "_tokenId",
          "type": "uint256"
        }
      ],
      "name": "takeOwnership",
      "outputs": [],
      "payable": false,
      "stateMutability": "nonpayable",
      "type": "function",
      "signature": "0xb2e6ceeb"
    }
  ],
  "bytecode": "0x60806040526000600155336000806101000a81548173ffffffffffffffffffffffffffffffffffffffff021916908373ffffffffffffffffffffffffffffffffffffffff160217905550610ed4806100586000396000f3fe6080604052600436106100c5576000357c0100000000000000000000000000000000000000000000000000000000900463ffffffff168063095ea7b3146100ca5780632004ffd91461012557806321ee585b1461013c5780633ccfd60b146101775780636352211e1461018e57806370a0823114610209578063715018a61461026e5780638da5cb5b14610285578063a14d122d146102dc578063a9059cbb146102e6578063b2e6ceeb14610341578063bac792aa1461037c578063f2fde38b14610454575b600080fd5b3480156100d657600080fd5b50610123600480360360408110156100ed57600080fd5b81019080803573ffffffffffffffffffffffffffffffffffffffff169060200190929190803590602001909291905050506104a5565b005b34801561013157600080fd5b5061013a6104a9565b005b34801561014857600080fd5b506101756004803603602081101561015f57600080fd5b810190808035906020019092919050505061064e565b005b34801561018357600080fd5b5061018c610723565b005b34801561019a57600080fd5b506101c7600480360360208110156101b157600080fd5b8101908080359060200190929190505050610803565b604051808273ffffffffffffffffffffffffffffffffffffffff1673ffffffffffffffffffffffffffffffffffffffff16815260200191505060405180910390f35b34801561021557600080fd5b506102586004803603602081101561022c57600080fd5b81019080803573ffffffffffffffffffffffffffffffffffffffff169060200190929190505050610832565b6040518082815260200191505060405180910390f35b34801561027a57600080fd5b5061028361083d565b005b34801561029157600080fd5b5061029a61093f565b604051808273ffffffffffffffffffffffffffffffffffffffff1673ffffffffffffffffffffffffffffffffffffffff16815260200191505060405180910390f35b6102e4610964565b005b3480156102f257600080fd5b5061033f6004803603604081101561030957600080fd5b81019080803573ffffffffffffffffffffffffffffffffffffffff16906020019092919080359060200190929190505050610a30565b005b34801561034d57600080fd5b5061037a6004803603602081101561036457600080fd5b8101908080359060200190929190505050610ba5565b005b34801561038857600080fd5b50610391610ba8565b60405180806020018681526020018581526020018473ffffffffffffffffffffffffffffffffffffffff1673ffffffffffffffffffffffffffffffffffffffff168152602001838152602001828103825287818151815260200191508051906020019080838360005b838110156104155780820151818401526020810190506103fa565b50505050905090810190601f1680156104425780820380516001836020036101000a031916815260200191505b50965050505050505060405180910390f35b34801561046057600080fd5b506104a36004803603602081101561047757600080fd5b81019080803573ffffffffffffffffffffffffffffffffffffffff169060200190929190505050610c84565b005b5050565b6000809054906101000a900473ffffffffffffffffffffffffffffffffffffffff1673ffffffffffffffffffffffffffffffffffffffff163373ffffffffffffffffffffffffffffffffffffffff1614151561050457600080fd5b6001805410151561057d576040517f08c379a00000000000000000000000000000000000000000000000000000000081526004018080602001828103825260148152602001807f4f6e6c79206f6e6520436172642069737375656400000000000000000000000081525060200191505060405180910390fd5b6040805190810160405280600981526020017f4a6f686e2043656e610000000000000000000000000000000000000000000000815250600260000190805190602001906105cb929190610e03565b50605f600260010181905550606160026001018190555033600260030160006101000a81548173ffffffffffffffffffffffffffffffffffffffff021916908373ffffffffffffffffffffffffffffffffffffffff160217905550600360026004018190555061064660018054610ceb90919063ffffffff16565b600181905550565b600260030160009054906101000a900473ffffffffffffffffffffffffffffffffffffffff1673ffffffffffffffffffffffffffffffffffffffff163373ffffffffffffffffffffffffffffffffffffffff16141515610716576040517f08c379a00000000000000000000000000000000000000000000000000000000081526004018080602001828103825260158152602001807f596f7520617265206e6f7420746865206f776e6572000000000000000000000081525060200191505060405180910390fd5b8060026004018190555050565b6000809054906101000a900473ffffffffffffffffffffffffffffffffffffffff1673ffffffffffffffffffffffffffffffffffffffff163373ffffffffffffffffffffffffffffffffffffffff1614151561077e57600080fd5b600260030160009054906101000a900473ffffffffffffffffffffffffffffffffffffffff1673ffffffffffffffffffffffffffffffffffffffff166108fc3073ffffffffffffffffffffffffffffffffffffffff16319081150290604051600060405180830381858888f19350505050158015610800573d6000803e3d6000fd5b50565b6000600260030160009054906101000a900473ffffffffffffffffffffffffffffffffffffffff169050919050565b600060019050919050565b6000809054906101000a900473ffffffffffffffffffffffffffffffffffffffff1673ffffffffffffffffffffffffffffffffffffffff163373ffffffffffffffffffffffffffffffffffffffff1614151561089857600080fd5b6000809054906101000a900473ffffffffffffffffffffffffffffffffffffffff1673ffffffffffffffffffffffffffffffffffffffff167ff8df31144d9c2f0f6b59d69b8b98abd5459d07f2742c4df920b25aae33c6482060405160405180910390a260008060006101000a81548173ffffffffffffffffffffffffffffffffffffffff021916908373ffffffffffffffffffffffffffffffffffffffff160217905550565b6000809054906101000a900473ffffffffffffffffffffffffffffffffffffffff1681565b670de0b6b3a764000060026004015402341415156109ea576040517f08c379a00000000000000000000000000000000000000000000000000000000081526004018080602001828103825260148152602001807f456e7465722061206c61726765722076616c756500000000000000000000000081525060200191505060405180910390fd5b33600260030160006101000a81548173ffffffffffffffffffffffffffffffffffffffff021916908373ffffffffffffffffffffffffffffffffffffffff160217905550565b600260030160009054906101000a900473ffffffffffffffffffffffffffffffffffffffff1673ffffffffffffffffffffffffffffffffffffffff163373ffffffffffffffffffffffffffffffffffffffff16141515610af8576040517f08c379a00000000000000000000000000000000000000000000000000000000081526004018080602001828103825260158152602001807f596f7520617265206e6f7420746865206f776e6572000000000000000000000081525060200191505060405180910390fd5b81600260030160006101000a81548173ffffffffffffffffffffffffffffffffffffffff021916908373ffffffffffffffffffffffffffffffffffffffff1602179055508173ffffffffffffffffffffffffffffffffffffffff163373ffffffffffffffffffffffffffffffffffffffff167fddf252ad1be2c89b69c2b068fc378daa952ba7f163c4a11628f55a4df523b3ef836040518082815260200191505060405180910390a35050565b50565b6002806000018054600181600116156101000203166002900480601f016020809104026020016040519081016040528092919081815260200182805460018160011615610100020316600290048015610c425780601f10610c1757610100808354040283529160200191610c42565b820191906000526020600020905b815481529060010190602001808311610c2557829003601f168201915b5050505050908060010154908060020154908060030160009054906101000a900473ffffffffffffffffffffffffffffffffffffffff16908060040154905085565b6000809054906101000a900473ffffffffffffffffffffffffffffffffffffffff1673ffffffffffffffffffffffffffffffffffffffff163373ffffffffffffffffffffffffffffffffffffffff16141515610cdf57600080fd5b610ce881610d09565b50565b6000808284019050838110151515610cff57fe5b8091505092915050565b600073ffffffffffffffffffffffffffffffffffffffff168173ffffffffffffffffffffffffffffffffffffffff1614151515610d4557600080fd5b8073ffffffffffffffffffffffffffffffffffffffff166000809054906101000a900473ffffffffffffffffffffffffffffffffffffffff1673ffffffffffffffffffffffffffffffffffffffff167f8be0079c531659141344cd1fd0a4f28419497f9722a3daafe3b4186f6b6457e060405160405180910390a3806000806101000a81548173ffffffffffffffffffffffffffffffffffffffff021916908373ffffffffffffffffffffffffffffffffffffffff16021790555050565b828054600181600116156101000203166002900490600052602060002090601f016020900481019282601f10610e4457805160ff1916838001178555610e72565b82800160010185558215610e72579182015b82811115610e71578251825591602001919060010190610e56565b5b509050610e7f9190610e83565b5090565b610ea591905b80821115610ea1576000816000905550600101610e89565b5090565b9056fea165627a7a72305820008bddf4a95f5b78b29886d2d85f59ed6d3d375f4db82c1de9c8339179affc6f0029",
  "source": "pragma solidity >=0.4.21 <0.6.0;\n\n\nimport \"./ownable.sol\";\nimport \"./erc721.sol\";\nimport \"./safemath.sol\";\n\ncontract TrumpCard is ERC721,Ownable {\n    \n    using SafeMath for uint256;\n        \n    struct TrumpCardStruct{\n        string nameId;\n        uint defence;     //defence of card\n        uint attack;      //attack of card\n        address payable owner;    //Owner of card\n        uint price;       // price of Card in ether\n    }\n        \n    uint private count = 0;\n        \n    TrumpCardStruct public trumpCard;\n    mapping(uint => address) CardApproval;\n\n\n        //only one Card to be owned \n    function mintToken() public onlyOwner{\n        require(count < 1,\"Only one Card issued\");\n        trumpCard.nameId = \"John Cena\";\n        trumpCard.defence = 95;\n        trumpCard.defence = 97;\n        trumpCard.owner = msg.sender;\n        trumpCard.price = 3;\n        count = count.add(1);\n    }\n        \n        \n        //function to sell card\n    function buyTrumpcard() public payable {\n        require(msg.value == trumpCard.price * 10**18,\"Enter a larger value\");\n        trumpCard.owner = msg.sender;\n    }\n        \n    function setTajmahalPrice(uint _prc) public {\n        require(msg.sender == trumpCard.owner,\"You are not the owner\");\n        trumpCard.price = _prc;\n    } \n        \n    function withdraw() external onlyOwner {\n        trumpCard.owner.transfer(address(this).balance);\n    }\n    \n    function balanceOf(address _owner) public view returns (uint256 _balance){\n        return 1;\n    }\n    \n    function ownerOf(uint256 _tokenId) public view returns (address _owner){\n        return trumpCard.owner;\n    }\n    \n    function transfer(address payable _to, uint256 _tokenId) public{\n        require(msg.sender == trumpCard.owner,\"You are not the owner\");\n        trumpCard.owner = _to;\n        emit Transfer(msg.sender,_to,_tokenId);\n    }\n    \n    //no implementation added \n    function approve(address _to, uint256 _tokenId) public{ \n    }\n    \n    //no implementation added\n    function takeOwnership(uint256 _tokenId) public {\n    }\n        \n\n    \n}",
  "sourcePath": "/home/medha/Desktop/Dapps/WWETrumpCards/contracts/TrumpCard.sol",
  "compiler": {
    "name": "solc",
    "version": "0.5.0+commit.1d4f565a.Emscripten.clang"
  },
  "schemaVersion": "3.0.2",
  "updatedAt": "2019-02-28T18:16:13.248Z",
  "devdoc": {
    "methods": {
      "renounceOwnership()": {
        "details": "Allows the current owner to relinquish control of the contract."
      },
      "transferOwnership(address)": {
        "details": "Allows the current owner to transfer control of the contract to a newOwner.",
        "params": {
          "_newOwner": "The address to transfer ownership to."
        }
      }
    }
  },
  "userdoc": {
    "methods": {
      "renounceOwnership()": {
        "notice": "Renouncing to ownership will leave the contract without an owner. It will not be possible to call the functions with the `onlyOwner` modifier anymore."
      }
    }
  }
}